:020000040800F2
:1000000000000320951C00087D1A0008831A0008D0
:10001000891A00088F1A0008951A000800000000CD
:10002000000000000000000000000000D1A900084E
:100030009B1A00080000000021AC000889AC0008F1
:10004000E51C0008E51C0008E51C0008E51C00088C
:10005000E51C0008E51C0008E51C0008E51C00087C
:10006000E51C0008E51C0008E51C0008E51C00086C
:10007000E51C0008E51C0008E51C0008E51C00085C
:10008000E51C0008E51C0008E51C0008E51C00084C
:10009000E51C0008E51C0008E51C0008E51C00083C
:1000A000E51C0008E51C0008E51C0008E51C00082C
:1000B000E51C0008E51C0008E51C0008E51C00081C
:1000C000E51C0008E51C0008E51C0008E51C00080C
:1000D000E51C0008E51C0008E51C0008E51C0008FC
:1000E000E51C0008E51C0008E51C0008E51C0008EC
:1000F000E51C0008E51C0008E51C0008E51C0008DC
:10010000E51C0008E51C0008E51C0008E51C0008CB
:10011000E51C0008E51C0008A91A0008E51C0008F9
:10012000E51C0008E51C0008E51C0008E51C0008AB
:10013000E51C0008E51C0008E51C0008E51C00089B
:10014000E51C0008E51C0008E51C0008E51C00088B
:10015000E51C0008E51C0008E51C0008E51C00087B
:10016000E51C0008E51C0008E51C0008E51C00086B
:10017000E51C0008BD1A0008E51C0008000000008E
:10018000E51C0008E51C0008E51C0008E51C00084B
:10019000E51C0008D11A0008E51C0008E51C000851
:0C01A000E51C0008E51C0008E51C000838
:1001B00010B5054C237833B9044B13B10448AFF3A1
:1001C00000800123237010BDE80300200000000020
:1001D000E42C010808B5034B1BB103490348AFF3F6
:1001E000008008BD00000000EC030020E42C0108A2
:1001F000034613F8012B002AFBD1181A0138704767
:1002000001F0FF01102A2BDB10F0070F08D010F8C7
:10021000013B013A8B422DD010F0070F42B3F6D1CB
:10022000F0B441EA012141EA014122F007047FF0E4
:1002300000070023F0E80256083C85EA010586EA3B
:10024000010685FA47F5A3FA87F586FA47F6A5FA77
:1002500087F68EB9EED1F0BC01F0FF0102F0070283
:1002600032B110F8013B013A83EA010313B1F8D12E
:100270000020704701387047002D06BF354603380F
:10028000073815F0010F07D1013015F4807F02BF48
:10029000013015F4C03F0130F0BC0138704700BF99
:1002A00081F0004102E000BF83F0004330B54FEA27
:1002B00041044FEA430594EA050F08BF90EA020F94
:1002C0001FBF54EA000C55EA020C7FEA645C7FEA27
:1002D000655C00F0E2804FEA5454D4EB5555B8BF4A
:1002E0006D420CDD2C4480EA020281EA030382EABB
:1002F000000083EA010180EA020281EA0303362D4D
:1003000088BF30BD11F0004F4FEA01314FF4801C1F
:100310004CEA113102D0404261EB410113F0004F31
:100320004FEA03334CEA133302D0524263EB4303E8
:1003300094EA050F00F0A780A4F10104D5F1200E86
:100340000DDB02FA0EFC22FA05F2801841F10001E1
:1003500003FA0EF2801843FA05F359410EE0A5F1B5
:1003600020050EF1200E012A03FA0EFC28BF4CF0E6
:10037000020C43FA05F3C01851EBE37101F000459C
:1003800007D54FF0000EDCF1000C7EEB00006EEBA9
:100390000101B1F5801F1BD3B1F5001F0CD3490833
:1003A0005FEA30004FEA3C0C04F101044FEA44528A
:1003B00012F5800F80F09A80BCF1004F08BF5FEA11
:1003C000500C50F1000041EB045141EA050130BDF1
:1003D0005FEA4C0C404141EB0101013C28BFB1F503
:1003E000801FE9D291F0000F04BF01460020B1FA4E
:1003F00081F308BF2033A3F10B03B3F120020CDA21
:100400000C3208DD02F1140CC2F10C0201FA0CF0FE
:1004100021FA02F10CE002F11402D8BFC2F1200C63
:1004200001FA02F120FA0CFCDCBF41EA0C01904019
:10043000E41AA2BF01EB0451294330BD6FEA040462
:100440001F3C1CDA0C340EDC04F11404C4F120024D
:1004500020FA04F001FA02F340EA030021FA04F35F
:1004600045EA030130BDC4F10C04C4F1200220FAB6
:1004700002F001FA04F340EA0300294630BD21FAF4
:1004800004F0294630BD94F0000F83F4801306BFBA
:1004900081F480110134013D4EE77FEA645C18BFAE
:1004A0007FEA655C29D094EA050F08BF90EA020F45
:1004B00005D054EA000C04BF1946104630BD91EA3D
:1004C000030F1EBF0021002030BD5FEA545C05D140
:1004D0004000494128BF41F0004130BD14F580047F
:1004E0003CBF01F5801130BD01F0004545F0FE41F3
:1004F00041F470014FF0000030BD7FEA645C1ABF28
:10050000194610467FEA655C1CBF0B46024650EA5E
:10051000013406BF52EA033591EA030F41F400218A
:1005200030BD00BF90F0000F04BF0021704730B510
:100530004FF4806404F132044FF000054FF00001E5
:1005400050E700BF90F0000F04BF0021704730B5A6
:100550004FF4806404F1320410F0004548BF40427B
:100560004FF000013EE700BF42004FEAE2014FEAD0
:1005700031014FEA02701FBF12F07F4393F07F4FAB
:1005800081F06051704732F07F4208BF704793F0AE
:100590007F4F04BF41F40021704730B54FF46074C1
:1005A00001F0004521F000411CE700BF50EA0102C4
:1005B00008BF704730B54FF000050AE050EA01026D
:1005C00008BF704730B511F0004502D5404261EBDD
:1005D00041014FF4806404F132045FEA915C3FF41E
:1005E000D8AE4FF003025FEADC0C18BF03325FEABB
:1005F000DC0C18BF033202EBDC02C2F1200300FA6C
:1006000003FC20FA02F001FA03FE40EA0E0021FA90
:1006100002F11444BDE600BF70B54FF0FF0C4CF47E
:10062000E06C1CEA11541DBF1CEA135594EA0C0F30
:1006300095EA0C0F00F0DEF82C4481EA030621EA6B
:100640004C5123EA4C5350EA013518BF52EA0335A6
:1006500041F4801143F4801338D0A0FB02CE4FF058
:100660000005E1FB02E506F00042E0FB03E54FF088
:100670000006E1FB03569CF0000F18BF4EF0010E80
:10068000A4F1FF04B6F5007F64F5407404D25FEA7C
:100690004E0E6D4146EB060642EAC62141EA55512F
:1006A0004FEAC52040EA5E504FEACE2EB4F1FD0C71
:1006B00088BFBCF5E06F1ED8BEF1004F08BF5FEAEF
:1006C000500E50F1000041EB045170BD06F00046A1
:1006D00046EA010140EA020081EA0301B4EB5C044E
:1006E000C2BFD4EB0C0541EA045170BD41F4801146
:1006F0004FF0000E013C00F3AB8014F1360FDEBF6B
:10070000002001F0004170BDC4F10004203C35DA46
:100710000C341BDC04F11404C4F1200500FA05F3C9
:1007200020FA04F001FA05F240EA020001F000426A
:1007300021F0004110EBD37021FA04F642EB0601E0
:100740005EEA430E08BF20EAD37070BDC4F10C040A
:10075000C4F1200500FA04F320FA05F001FA04F2CE
:1007600040EA020001F0004110EBD37041F10001BA
:100770005EEA430E08BF20EAD37070BDC4F12005C5
:1007800000FA05F24EEA020E20FA04F301FA05F22D
:1007900043EA020321FA04F001F0004121FA04F2D5
:1007A00020EA020000EBD3705EEA430E08BF20EAA5
:1007B000D37070BD94F0000F0FD101F000464000DF
:1007C00041EB010111F4801F08BF013CF7D041EA61
:1007D000060195F0000F18BF704703F00046520065
:1007E00043EB030313F4801F08BF013DF7D043EA36
:1007F0000603704794EA0C0F0CEA135518BF95EAEC
:100800000C0F0CD050EA410618BF52EA4306D1D172
:1008100081EA030101F000414FF0000070BD50EA91
:10082000410606BF1046194652EA430619D094EA1B
:100830000C0F02D150EA013613D195EA0C0F05D105
:1008400052EA03361CBF104619460AD181EA030159
:1008500001F0004141F0FE4141F470014FF0000011
:1008600070BD41F0FE4141F4780170BD70B54FF0AC
:10087000FF0C4CF4E06C1CEA11541DBF1CEA13552C
:1008800094EA0C0F95EA0C0F00F0A7F8A4EB05040E
:1008900081EA030E52EA03354FEA013100F0888005
:1008A0004FEA03334FF0805545EA131343EA1263CE
:1008B0004FEA022245EA111545EA10654FEA002683
:1008C0000EF000419D4208BF964244F1FD0404F53C
:1008D000407402D25B084FEA3202B61A65EB030598
:1008E0005B084FEA32024FF480104FF4002CB6EB55
:1008F000020E75EB030E22BFB61A754640EA0C00D5
:100900005B084FEA3202B6EB020E75EB030E22BF14
:10091000B61A754640EA5C005B084FEA3202B6EB55
:10092000020E75EB030E22BFB61A754640EA9C0014
:100930005B084FEA3202B6EB020E75EB030E22BFE4
:10094000B61A754640EADC0055EA060E18D04FEAA2
:10095000051545EA16754FEA06164FEAC30343EA42
:1009600052734FEAC2025FEA1C1CC0D111F4801F0F
:100970000BD141EA00014FF000004FF0004CB6E708
:1009800011F4801F04BF01430020B4F1FD0C88BFA7
:10099000BCF5E06F3FF6AFAEB5EB030C04BFB6EBB2
:1009A000020C5FEA500C50F1000041EB045170BDA5
:1009B0000EF0004E4EEA113114EB5C04C2BFD4EBD2
:1009C0000C0541EA045170BD41F480114FF0000E56
:1009D000013C90E645EA060E8DE60CEA135594EAD2
:1009E0000C0F08BF95EA0C0F3FF43BAF94EA0C0FD5
:1009F0000AD150EA01347FF434AF95EA0C0F7FF44A
:100A000025AF104619462CE795EA0C0F06D152EA9D
:100A100003353FF4FDAE1046194622E750EA410681
:100A200018BF52EA43067FF4C5AE50EA41047FF492
:100A30000DAF52EA43057FF4EBAE12E74FF0FF3CF7
:100A400006E000BF4FF0010C02E000BF4FF0010CC8
:100A50004DF804CD4FEA410C7FEA6C5C4FEA430C41
:100A600018BF7FEA6C5C1BD001B050EA410C0CBF90
:100A700052EA430C91EA030F02BF90EA020F0020F2
:100A8000704710F1000F91EA030F58BF994208BF59
:100A900090422CBFD8176FEAE37040F00100704716
:100AA0004FEA410C7FEA6C5C02D150EA013C07D16D
:100AB0004FEA430C7FEA6C5CD6D152EA033CD3D0B8
:100AC0005DF8040B704700BF8446104662468C46B2
:100AD0001946634600E000BF01B5FFF7B7FF0028E5
:100AE00048BF10F1000F01BD4DF808EDFFF7F4FF0E
:100AF0000CBF012000205DF808FB00BF4DF808ED99
:100B0000FFF7EAFF34BF012000205DF808FB00BFBB
:100B10004DF808EDFFF7E0FF94BF012000205DF8DD
:100B200008FB00BF4DF808EDFFF7CEFF94BF012092
:100B300000205DF808FB00BF4DF808EDFFF7C4FF8B
:100B400034BF012000205DF808FB00BF4FEA410CD4
:100B50007FEA6C5C02D150EA013C0AD14FEA430CB7
:100B60007FEA6C5C02D152EA033C02D14FF00000F4
:100B700070474FF0010070474FEA410212F5001232
:100B800015D211D56FF47873B3EB625212D94FEAD4
:100B9000C12343F0004343EA505311F0004F23FABE
:100BA00002F018BF404270474FF00000704750EA13
:100BB000013005D111F0004008BF6FF000407047D0
:100BC0004FF00000704700BF4A0011D212F500122A
:100BD00011D20DD56FF47873B3EB62520ED44FEA95
:100BE000C12343F0004343EA505323FA02F0704715
:100BF0004FF00000704750EA013002D14FF0FF3053
:100C000070474FF0000070474FEA4102B2F1E043F5
:100C100024BFB3F5001CDCF1FE5C0DD901F0004CE3
:100C20004FEAC0024CEA5070B2F1004F40EB830033
:100C300008BF20F00100704711F0804F21D113F15F
:100C40003872BCBF01F00040704741F480114FEA98
:100C50005252C2F11802C2F1200C10FA0CF320FA21
:100C600002F018BF40F001004FEAC1234FEAD3233E
:100C700003FA0CFC40EA0C0023FA02F34FEA4303A8
:100C8000CCE77FEA625307D150EA01331EBF4FF031
:100C9000FE4040F44000704701F0004040F0FE404C
:100CA00040F40000704700BF53B94AB9002908BF9B
:100CB00000281CBF4FF0FF314FF0FF3000F0AAB901
:100CC000ADF1080C6DE904CE00F03CF8DDF804E06D
:100CD000DDE9022304B0704738B500220023044642
:100CE0000D46FFF70BFF28B920462946BDE83840DE
:100CF00000F00AB8204605F1004100F005F8404236
:100D000061EB410138BD00BFD0B50C4B0022064657
:100D10000F46FFF781FCFFF757FF0446FFF702FC81
:100D2000074B0022FFF778FC02460B463046394657
:100D3000FFF7BAFAFFF748FF2146D0BD0000F03DAB
:100D40000000F0412DE9F047089D04468E46002B37
:100D50004DD18A42944669D9B2FA82F252B101FA6F
:100D600002F3C2F1200120FA01F10CFA02FC41EA7F
:100D7000030E94404FEA1C48210CBEFBF8F61FFA04
:100D80008CF708FB16E341EA034306FB07F199429F
:100D90000AD91CEB030306F1FF3080F01F81994252
:100DA00040F21C81023E63445B1AA4B2B3FBF8F02C
:100DB00008FB103344EA034400FB07F7A7420AD9B3
:100DC0001CEB040400F1FF3380F00A81A74240F2DB
:100DD00007816444023840EA0640E41B00261DB146
:100DE000D4400023C5E900433146BDE8F0878B427B
:100DF00009D9002D00F0EF800026C5E9000130463A
:100E00003146BDE8F087B3FA83F6002E4AD18B4213
:100E100002D3824200F2F980841A61EB03030120BD
:100E20009E46002DE0D0C5E9004EDDE702B9FFDEA9
:100E3000B2FA82F2002A40F09280A1EB0C014FEA54
:100E40001C471FFA8CFE0126200CB1FBF7F307FBB1
:100E5000131140EA01410EFB03F0884208D91CEB54
:100E6000010103F1FF3802D2884200F2CB804346F1
:100E7000091AA4B2B1FBF7F007FB101144EA0144D0
:100E80000EFB00FEA64508D91CEB040400F1FF315F
:100E900002D2A64500F2BB800846A4EB0E0440EA4D
:100EA00003409CE7C6F12007B34022FA07FC4CEA56
:100EB000030C20FA07F401FA06F31C43F9404FEA49
:100EC0001C4900FA06F3B1FBF9F8200C1FFA8CFE5E
:100ED00009FB181140EA014108FB0EF0884202FAB2
:100EE00006F20BD91CEB010108F1FF3A80F0888073
:100EF000884240F28580A8F102086144091AA4B230
:100F0000B1FBF9F009FB101144EA014100FB0EFEB0
:100F10008E4508D91CEB010100F1FF346CD28E45DF
:100F20006AD90238614440EA0840A0FB0294A1EB70
:100F30000E01A142C846A64656D353D05DB1B3EBCD
:100F4000080261EB0E0101FA07F722FA06F3F140FD
:100F50001F43C5E9007100263146BDE8F087C2F1A4
:100F60002003D8400CFA02FC21FA03F3914001431C
:100F70004FEA1C471FFA8CFEB3FBF7F007FB103655
:100F80000B0C43EA064300FB0EF69E4204FA02F401
:100F900008D91CEB030300F1FF382FD29E422DD954
:100FA000023863449B1B89B2B3FBF7F607FB163389
:100FB00041EA034106FB0EF38B4208D91CEB010109
:100FC00006F1FF3816D28B4214D9023E6144C91A89
:100FD00046EA004638E72E46284605E70646E3E699
:100FE0001846F8E64B45A9D2B9EB020864EB0C0EA3
:100FF0000138A3E74646EAE7204694E74046D1E7B2
:10100000D0467BE7023B614432E7304609E764445F
:10101000023842E7704700BF80B485B000AFF86087
:10102000B9607A60FB68074A1A60BB68064A1A60B2
:101030007B6880221A6000BF1437BD465DF8047BD0
:10104000704700BF04040020B8040020B0B5A4B06D
:1010500000AF02F0FDFC00F079F800F017F900F0A5
:10106000DFF8304B07F174041D460FCD0FC495E82F
:10107000070084E8070007F174030021184609F00F
:1010800042F90346284A1360284B07F158041D46CD
:101090000FCD0FC495E8070084E8070007F1580357
:1010A0000021184609F02FF90346214A1360214B0D
:1010B00007F13C041D460FCD0FC495E8070084E8F6
:1010C000070007F13C030021184609F01CF903460C
:1010D000194A1360194B07F120041D460FCD0FC4A8
:1010E00095E8070084E8070007F12003002118466F
:1010F00009F009F90346124A1360124B3C1D1D46C4
:101100000FCD0FC495E8070084E807003B1D0021C0
:10111000184609F0F8F803460B4A136009F0ECF89A
:10112000FEE700BF282D010810070020442D01080C
:1011300014070020602D0108180700207C2D0108ED
:101140001C070020982D01082007002080B594B0CE
:1011500000AF07F120033022002118460DF0E3F91B
:1011600007F10C0300221A605A609A60DA601A6173
:101170000023BB60284B1B6C274A43F08053136449
:10118000254B1B6C03F08053BB60BB6800237B6066
:10119000224B1B68214A43F4404313601F4B1B68DA
:1011A00003F440437B607B6801233B624FF4803350
:1011B0007B620223BB634FF48003FB6308233B6421
:1011C0004FF4A8737B640223BB640723FB6407F11D
:1011D0002003184605F054FA0346002B01D000F016
:1011E0002DFB0F23FB6002233B6100237B614FF447
:1011F000A053BB614FF4A053FB6107F10C03052121
:10120000184605F0B5FC0346002B01D000F016FB94
:1012100000BF5037BD4680BD00380240007000401E
:1012200080B500AF174B184A1A60164B4FF4827204
:101230005A60144B00229A60124B0022DA60114B64
:1012400000221A610F4B00225A610E4B4FF40072BC
:101250009A610C4B1822DA610A4B00221A62094B80
:1012600000225A62074B00229A62064B0A22DA6277
:10127000044806F016F90346002B01D000F0DEFA10
:1012800000BF80BDB80600200050014080B58AB084
:1012900000AF07F1140300221A605A609A60DA6006
:1012A0001A6100233B612E4B1B6B2D4A43F0200338
:1012B00013632B4B1B6B03F020033B613B69002343
:1012C000FB60274B1B6B264A43F080031363244BC0
:1012D0001B6B03F08003FB60FB680023BB60204BAB
:1012E0001B6B1F4A43F0020313631D4B1B6B03F080
:1012F0000203BB60BB6800237B60194B1B6B184A61
:1013000043F001031363164B1B6B03F001037B6077
:101310007B6800233B60124B1B6B114A43F0400378
:1013200013630F4B1B6B03F040033B603B680022D1
:101330004FF4C0410B4803F033FC4FF4C0437B61D2
:101340000123BB610023FB6102233B6207F114030D
:101350001946044803F06CF900BF2837BD4680BD2C
:10136000003802400018024080B584B000AF7860B9
:101370000CF07EFA01F0E0FA01F058FB4FF050411A
:10138000012001F0D5FB012001F036FC01F098FFAF
:10139000194801F0A3FC184801F056FC4FF0FF304B
:1013A00001F03AFC154801F069FC01F081FC144899
:1013B00001F028FB0023FB6016E0114AFB689B004C
:1013C000134493ED007ADFED0F6AC7EE267A9FEDA6
:1013D0000E7A67EE877A0D4AFB689B001344C3EDD3
:1013E000007AFB680133FB60FB68022BE5DD6420BB
:1013F00008F0D5FFDBE700BF008000FF0C010020F4
:10140000240700200000FA4400008C42300700202E
:1014100080B582B000AF78607B4BD3ED007AF5EEFB
:10142000C07AF1EE10FAC0F2EA80774BD3ED007A81
:10143000B3EE097AF4EEC77AF1EE10FA2FD87348BA
:1014400001F04CFC01F05CFB03469BB2783B9BB285
:101450001922A021184601F0A9FD01F051FB034615
:101460009BB2783B9BB21922A021184601F088FE5E
:10147000674B1B681A46674967480DF0EBFF03236B
:10148000664A0D210B2001F095FC0323624A0D21D1
:10149000642001F08FFC322008F081FFAFE05A4B4E
:1014A000D3ED007AF0EEE77A17EE900AFFF75CF8DA
:1014B0004FF000025A4BFFF7D9F902460B4610468F
:1014C00019464FF00002574BFEF7F0FE02460B465E
:1014D00010461946FFF750FB0346534A1360524B20
:1014E0001B686E2B02DD504B6E221A604F4B01229F
:1014F0001A603AE04E4B1A684B4B1B689A4239D03F
:101500004B4B1B6801334A4A1360404801F0E6FB2D
:1015100001F0F6FA03469BB2783B9BB2454A12684B
:1015200091B2434A126892B2184601F03FFD01F0B1
:10153000E7FA03469BB2783B9BB23E4A126891B2EF
:101540003B4A126892B2184601F01AFE0323334A4E
:101550000D210B2001F02EFC03232F4A0D216420C6
:1015600001F028FC0A2008F01AFF2F4B1B68192BEA
:10157000C0D13DE000BF3BE02D4B1B68013B2C4A36
:101580001360224801F0AAFB01F0BAFA03469BB2AD
:10159000783B9BB2274A126891B2254A126892B2F0
:1015A000184601F003FD01F0ABFA03469BB2783B0D
:1015B0009BB2204A126891B21D4A126892B2184634
:1015C00001F0DEFD124B1B681A46124912480DF05D
:1015D00041FF0323114A0D210B2001F0EBFB0323F4
:1015E0000D4A0D21642001F0E5FB0A2008F0D7FE2A
:1015F0000F4B1B68192BBFD10D4B19221A6001200C
:1016000008F0CDFE08E700BF30070020008000FF93
:1016100048070020B42D01084C070020840000205A
:1016200000003E40000039403C07002044070020F5
:10163000800000208C00002080B582B000AF786070
:10164000094B1B681A46094909480DF003FF084871
:10165000FEF7CEFD03469BB2194605480CF0D4F9BF
:10166000642008F09CFEEBE780000020B82D010804
:101670000000002080B582B000AF78603C4B1B6852
:10168000272B71DD3A4B1B686E2B6DDC394B1B68C9
:10169000012B69D1384B1B680133374A1360012293
:1016A0004FF40051354803F07BFA40F2A46008F093
:1016B00076FE00224FF40051304803F071FA2D4BB2
:1016C00000221A602E4BD3ED007AF0EEE77A17EE87
:1016D000900AFEF749FF4FF000022A4BFFF7C6F8C9
:1016E00002460B46104619464FF00002264BFEF705
:1016F000DDFD02460B4610461946FFF73DFA03464C
:10170000224A1360214B1B686E2B02DD1F4B6E2299
:101710001A601E4B1B683B2B26DD1D4801F0DEFACC
:101720001B4801F091FA01231A4A8221012001F09D
:1017300041FB0123184A9621012001F03BFB0123C4
:10174000164AAF21012001F035FB01224FF4804100
:101750000A4803F025FA124809F090FC114809F0F4
:101760008DFC114809F08AFC012008F018FE85E77D
:101770003C070020440700204807002000180240D2
:101780003007002000003E400000394040070020A4
:101790000000FFFFC82D0108840000204C07002036
:1017A00069130008111400083916000880B582B0CA
:1017B00000AF7860154BB32B0CD9144BD3ED007AE6
:1017C0009FED137AF4EEC77AF1EE10FA02D8114BBE
:1017D000A0221A600D4BD3ED007A9FED0D7AF4EE46
:1017E000C77AF1EE10FA0DDD0A4B1B680133094A86
:1017F0001360084B1B6840F22712934202D1054B3D
:10180000A0221A60322008F0CAFDD3E7300700207A
:1018100000003E438C00002080B582B000AF7860AD
:101820007B681B68044A934201D102F033F900BF80
:101830000837BD4680BD00BF0010004080B400AF37
:1018400072B600BFFEE7000080B582B000AF002393
:101850007B60124B5B6C114A43F4804353640F4B23
:101860005B6C03F480437B607B6800233B600B4B25
:101870001B6C0A4A43F080531364084B1B6C03F043
:1018800080533B603B6800220F216FF0010002F0A3
:1018900021FA00BF0837BD4680BD00BF00380240B6
:1018A00080B58AB000AF786007F1140300221A6097
:1018B0005A609A60DA601A617B681B681D4A93421D
:1018C00034D100233B611C4B5B6C1B4A43F48013F7
:1018D0005364194B5B6C03F480133B613B69002339
:1018E000FB60154B1B6B144A43F020031363124B30
:1018F0001B6B03F02003FB60FB684FF460737B619C
:101900000223BB610023FB6103233B6205237B624F
:1019100007F114031946094802F08AFE0022052146
:10192000552002F0D7F9552002F0F0F900BF283712
:10193000BD4680BD00500140003802400014024006
:1019400080B582B000AF78607B681B680A4A93421A
:101950000DD10A4B5B6C094A23F4801353644FF496
:101960006071074803F010F8552002F0DDF900BF60
:101970000837BD4680BD00BF00500140003802401E
:101980000014024080B58EB000AF78600023FB6287
:101990000023BB620023FB60334B1B6C324A43F0D5
:1019A00010031364304B1B6C03F01003FB60FB68E7
:1019B00007F1100207F114031146184605F0E4FA86
:1019C0003B6AFB62FB6A002B03D105F0C9FA78631E
:1019D00004E005F0C5FA03465B007B637B6B234A9A
:1019E000A2FB03239B0C013BBB62214B214A1A60E3
:1019F0001F4B40F2E732DA601D4ABB6A53601C4B52
:101A000000221A611A4B00229A60194B00229A6137
:101A1000174806F043FC034687F8333097F8333015
:101A2000002B1BD1124806F093FC034687F8333095
:101A300097F83330002B11D1362002F067F97B681C
:101A40000F2B08D800227968362002F043F90A4AA1
:101A50007B68136002E0012387F8333097F8333056
:101A600018463837BD4680BD0038024083DE1B4330
:101A700058070020001000401801002080B400AF7B
:101A8000FEE780B400AFFEE780B400AFFEE780B4AD
:101A900000AFFEE780B400AFFEE780B400AF00BF48
:101AA000BD465DF8047B704780B500AF024806F084
:101AB000BFFC00BF80BD00BF5807002080B500AF4D
:101AC000024803F0B0FC00BF80BD00BFB45C002042
:101AD00080B500AF024806F085F900BF80BD00BFA9
:101AE000B806002080B400AF01231846BD465DF85B
:101AF000047B704780B582B000AF786039600CF02D
:101B0000E1FB034616221A604FF0FF3318460837F0
:101B1000BD4680BD80B582B000AF78604FF0FF3128
:101B20007868FFF7E7FFFEE780B586B000AFF860A2
:101B3000B9607A6000237B610AE0AFF30080014660
:101B4000BB685A1CBA60CAB21A707B6901337B61E8
:101B50007A697B689A42F0DB7B6818461837BD4685
:101B600080BD80B586B000AFF860B9607A600023B0
:101B70007B6109E0BB685A1CBA601B781846AFF35A
:101B800000807B6901337B617A697B689A42F1DB73
:101B90007B6818461837BD4680BD80B483B000AF5F
:101BA00078604FF0FF3318460C37BD465DF8047B74
:101BB000704780B483B000AF786039603B684FF401
:101BC00000525A60002318460C37BD465DF8047B6E
:101BD000704780B483B000AF7860012318460C379B
:101BE000BD465DF8047B704780B485B000AFF860F7
:101BF000B9607A60002318461437BD465DF8047B4F
:101C00007047000080B586B000AF7860144A154B6D
:101C1000D31A7B617B693B61134B1B68002B02D19C
:101C2000114B124A1A60104B1A687B6813443A69C8
:101C30009A4207D20CF046FB03460C221A604FF082
:101C4000FF3309E0084B1B68FB60074B1A687B6891
:101C50001344054A1360FB6818461837BD4680BD1B
:101C60000000032000400000A0070020F0630020D7
:101C700080B400AF064BD3F88830054A43F47003B4
:101C8000C2F8883000BFBD465DF8047B704700BFD6
:101C900000ED00E0DFF834D00D480E490E4A002375
:101CA00002E0D458C4500433C4188C42F9D30B4A10
:101CB0000B4C002301E013600432A242FBD3FFF778
:101CC000D7FF0CF0FBFBFFF7C1F9704700000320C2
:101CD00000000020E80300208C5C0108E8030020DD
:101CE000F0630020FEE780B500AF00F073FCCA206F
:101CF00000F05DF9C32000F067F9082000F064F9F6
:101D0000502000F061F9CF2000F051F9002000F0E0
:101D10005BF9C12000F058F9302000F055F9ED20B2
:101D200000F045F9642000F04FF9032000F04CF971
:101D3000122000F049F9812000F046F9E82000F077
:101D400036F9852000F040F9002000F03DF97820B8
:101D500000F03AF9CB2000F02AF9392000F034F9EC
:101D60002C2000F031F9002000F02EF9342000F092
:101D70002BF9022000F028F9F72000F018F92020B4
:101D800000F022F9EA2000F012F9002000F01CF91E
:101D9000002000F019F9B12000F009F9002000F04E
:101DA00013F91B2000F010F9B62000F000F90A200A
:101DB00000F00AF9A22000F007F9C02000F0F7F8BF
:101DC000102000F001F9C12000F0F1F8102000F01F
:101DD000FBF8C52000F0EBF8452000F0F5F81520E1
:101DE00000F0F2F8C72000F0E2F8902000F0ECF8E4
:101DF000362000F0DCF8C82000F0E6F8F22000F011
:101E0000D6F8002000F0E0F8B02000F0D0F8C220B2
:101E100000F0DAF8B62000F0CAF80A2000F0D4F892
:101E2000A72000F0D1F8272000F0CEF8042000F021
:101E3000CBF82A2000F0BBF8002000F0C5F8002005
:101E400000F0C2F8002000F0BFF8EF2000F0BCF86E
:101E50002B2000F0ACF8002000F0B6F8002000F0D5
:101E6000B3F8012000F0B0F83F2000F0ADF8F62004
:101E700000F09DF8012000F0A7F8002000F0A4F881
:101E8000062000F0A1F82C2000F091F8C82000F006
:101E90008FFC262000F08BF8012000F095F8E02060
:101EA00000F085F80F2000F08FF8292000F08CF862
:101EB000242000F089F80C2000F086F80E2000F0B5
:101EC00083F8092000F080F84E2000F07DF878209B
:101ED00000F07AF83C2000F077F8092000F074F860
:101EE000132000F071F8052000F06EF8172000F0C4
:101EF0006BF8112000F068F8002000F065F8E12090
:101F000000F055F8002000F05FF8162000F05CF8B3
:101F10001B2000F059F8042000F056F8112000F0C2
:101F200053F8072000F050F8312000F04DF833202E
:101F300000F04AF8422000F047F8052000F044F88D
:101F40000C2000F041F80A2000F03EF8282000F0B4
:101F50003BF82F2000F038F80F2000F035F8112062
:101F600000F025F8C82000F023FC292000F01FF81D
:101F70002C2000F01CF800BF80BD80B500AF00F041
:101F800029FB0321D32000F02CF803469BB218460E
:101F900080BD80B500AF292000F009F800BF80BDEA
:101FA00080B500AF282000F002F800BF80BD80B5EA
:101FB00082B000AF0346FB71FB79184600F0A4FB2A
:101FC00000BF0837BD4680BD80B582B000AF034674
:101FD000FB80FB88184600F075FB00BF0837BD4644
:101FE00080BD80B582B000AF03460A46FB80134631
:101FF0007B717A79FB881146184600F0A7FB0346EF
:1020000018460837BD4680BD80B400AFF02318469F
:10201000BD465DF8047B704780B400AF4FF4A073F9
:102020001846BD465DF8047B704780B584B000AFAC
:102030000346FB800023FB7300F0C6FBFB88DBB28A
:10204000FB7307F10F0301222021184600F008FC62
:10205000FB881B0A9BB2DBB2FB7307F10F03012263
:102060002321184600F0FCFB00BF1037BD4680BDA1
:1020700080B400AF00BFBD465DF8047B704780B5FB
:1020800082B000AF00F0A0FBFB1D01220F2118461B
:1020900000F018FCFB7918460837BD4680BD80B5B6
:1020A00082B000AFFB1D01222421184600F00AFC7B
:1020B000FB7963F07F03DBB2FB71FB1D012224215E
:1020C000184600F0CDFB00BF0837BD4680BD80B587
:1020D00084B000AF0346FB800023FB73FB88DBB2B8
:1020E000FB7307F10F0301222021184600F0B8FB13
:1020F00000BF1037BD4680BD80B584B000AF034639
:10210000FB800023FB730023BB7307F10F03012245
:102110003021184600F0D6FB07F10E0301222221E0
:10212000184600F0CFFBFB7B23F07F03DBB2FB7391
:10213000FB88DBB21B125AB2FB7B5BB213435BB270
:10214000DBB2FB73BB7B23F02003DBB2BB73FB88EA
:10215000DAB2BB7B1343DBB2BB7307F10F0301227F
:102160003021184600F07CFB07F10E0301222221EA
:10217000184600F075FB00BF1037BD4680BD80B526
:1021800084B000AF0346FB7107F10F030122222147
:10219000184600F097FBFB79002B0AD1FB7B03F07C
:1021A0007F03DBB2FB73FB7B63F07F03DBB2FB736C
:1021B0000CE0FB79012B09D1FB7B23F00803DBB298
:1021C000FB73FB7B43F00803DBB2FB7307F10F03E8
:1021D00001222221184600F043FB00BF1037BD4604
:1021E00080BD80B584B000AF0346FB7107F10F03DB
:1021F00001222221184600F065FBFB79002B07D154
:10220000FB7B03F07F03DBB2FB73FB7BFB7309E01B
:10221000FB79012B06D1FB7B23F00803DBB2FB73B8
:10222000FB7BFB7307F10F0301222221184600F00C
:1022300017FB00BF1037BD4680BD80B584B000AF2E
:102240000346FB7107F10F0301222121184600F01C
:1022500039FBFB7B23F03F03DBB2FB73FA7BFB799B
:102260001343DBB2FB7307F10F0301222121184650
:1022700000F0F6FA00BF1037BD4680BD80B584B0CF
:1022800000AF0346FB7107F10F030122242118461A
:1022900000F018FBFB7B23F01003DBB2FB73FA7B2F
:1022A000FB791343DBB2FB7307F10F0301222421F7
:1022B000184600F0D5FA00BF1037BD4680BD0000BB
:1022C00080B58AB000AF78600023BB610023BB8378
:1022D00007F1100300221A609A800023FB734FF06D
:1022E00000037B6200233B6207F10F0301222321DD
:1022F000184600F0E7FA07F11803062228211846CD
:1023000000F0E0FAFB7B03F04003002B23D1002315
:102310003B621CE03B6A5B00013328333B4413F80B
:10232000103C9BB21B029AB23B6A5B0028333B44D1
:1023300013F8103C9BB213449BB21AB23B6A5B0089
:1023400028333B4423F8182C3B6A01333B623B6A39
:10235000022BDFDD22E000233B621CE03B6A5B00D6
:1023600028333B4413F8103C9BB21B029AB23B6AE1
:102370005B00013328333B4413F8103C9BB21344F9
:102380009BB21AB23B6A5B0028333B4423F8182CFB
:102390003B6A01333B623B6A022BDFDDFB7B03F0D0
:1023A0003003202B0CD0202B0DDC002B02D0102B67
:1023B00003D008E0154B7B6205E0154B7B6202E021
:1023C000144B7B6200BF00233B6216E03B6A5B005C
:1023D00028333B4433F9183C07EE903AB8EEE77ADD
:1023E0003B6A9B007A681344D7ED097A67EE277A37
:1023F000C3ED007A3B6A01333B623B6A022BE5DDA9
:1024000000BF00BF2837BD4680BD00BF00000C41A3
:1024100000008C4100008C4280B500AF194805F0E7
:10242000EBFD0346002B2BD1164B174A1A60154BB8
:102430001822DA61134B00229A60124B00225A6173
:10244000104B00221A610F4B00229A620D4B07229B
:10245000DA620C4B0022DA600A4B00221A62094B46
:102460004FF400729A61074B00225A62054B4FF4F9
:1024700082725A60034800F073F8024805F011F8C0
:1024800000BF80BDA40700200050014080B584B08B
:1024900000AF0346FB710023FB73FB799AB2094B33
:1024A0001B6807F10801084805F0E8F90346FB73CB
:1024B000FB7B002B01D000F047F8BB6818461037B3
:1024C000BD4680BD00010020A407002080B584B077
:1024D00000AF0346FB800023FB73094B1B68B91D4B
:1024E0000122084805F08EF80346FB73FB7B002BA6
:1024F00001D000F029F800BF1037BD4680BD00BFF5
:1025000000010020A407002080B586B002AF03467A
:10251000FB710023FB730A4B1B6807F10F02F91DC7
:1025200000930123074805F0BAFA0346002B01D0B7
:1025300000F00AF8FB7B18461037BD4680BD00BF8F
:1025400000010020A407002080B500AF034805F07B
:1025500031F8FFF761FF00BF80BD00BFA407002076
:1025600080B58AB000AF786000233B61174B5B6C8D
:10257000164A43F480135364144B5B6C03F48013CA
:102580003B613B690023FB60104B1B6B0F4A43F020
:10259000200313630D4B1B6B03F02003FB60FB68F0
:1025A0004FF460737B610223BB610223FB61012353
:1025B0003B6205237B6207F114031946044802F0CD
:1025C00037F800BF2837BD4680BD00BF0038024045
:1025D0000014024080B588B000AF364B1B78002B4A
:1025E00064D1344B01221A700023BB60324B1B6B49
:1025F000314A43F0080313632F4B1B6B03F00803AE
:10260000BB60BB684FF40053FB6001233B610023B8
:102610007B610223BB6107F10C031946274802F0D6
:1026200007F800237B60244B1B6B234A43F008030D
:102630001363214B1B6B03F008037B607B684FF433
:102640008053FB6001233B6100237B610223BB615C
:1026500007F10C031946194801F0EAFF00233B601B
:10266000154B1B6B144A43F004031363124B1B6B93
:1026700003F004033B603B680423FB6001233B61E0
:1026800000237B610223BB6107F10C0319460C4850
:1026900001F0CEFF00220421094802F081FA012254
:1026A0000421074802F07CFAFFF7B6FE00BF20378E
:1026B000BD4680BDFC07002000380240000C0240EF
:1026C0000008024080B582B000AF0346FB800122C3
:1026D0004FF400510A4802F063FA0022042109482D
:1026E00002F05EFAFB881846FFF7F0FE0122042193
:1026F000044802F055FA00BF0837BD4680BD00BF50
:10270000000C02400008024080B582B000AF0346D2
:10271000FB7100224FF400510A4802F041FA0022F6
:102720000421094802F03CFAFB799BB21846FFF7F6
:10273000CDFE01220421044802F032FA00BF08371E
:10274000BD4680BD000C02400008024080B584B048
:1027500000AF03460A46FB8013467B710023FB60F3
:1027600000220421104802F01BFA00224FF400510D
:102770000E4802F015FAFB881846FFF7A7FE7B7992
:102780001846FFF783FEF86001224FF40051074816
:1027900002F006FA01220421034802F001FAFB6864
:1027A00018461037BD4680BD00080240000C0240AC
:1027B00080B582B000AF7860786801F08BF900BF17
:1027C0000837BD4680BD000080B588B000AF00234B
:1027D000BB60204B1B6B1F4A43F0040313631D4B6C
:1027E0001B6B03F00403BB60BB680223FB60012387
:1027F0003B6100237B610123BB6107F10C03194698
:10280000154801F015FF01220221134802F0C8F912
:1028100000237B600F4B1B6B0E4A43F001031363D5
:102820000C4B1B6B03F001037B607B680623FB6092
:1028300000233B610223BB6100237B6107F10C0392
:102840001946064801F0F4FEFFF7E6FD00BF203709
:10285000BD4680BD00380240000802400000024032
:1028600080B582B000AF78600B46FB7013463B80AA
:102870003B88012B03D9FB7843F04003FB70002217
:1028800002210F4802F08CF9FB781846FFF73CFE56
:102890000AE07B681B781846FFF736FE3B88013B51
:1028A0003B807B6801337B603B88002BF1D10122A8
:1028B0000221034802F074F900BF0837BD4680BD0D
:1028C0000008024080B582B000AF78600B46FB7014
:1028D00013463B803B88012B04D9FB7863F03F0310
:1028E000FB7003E0FB7863F07F03FB7000220221A2
:1028F000104802F055F9FB781846FFF705FE0CE08A
:102900000020FFF701FE03461A467B681A703B88D9
:10291000013B3B807B6801337B603B88002BEFD120
:1029200001220221034802F03BF900BF0837BD46EF
:1029300080BD00BF0008024080B584B000AF012315
:10294000FB730023BB8100233B7000237B702B4B68
:102950009B6898470346D42B05D0284B9B68984723
:102960000346D52B45D1264B244A1A6008233B71D8
:1029700000237B710723BB713023FB7100233B7263
:1029800000237B721023BB723A797B791343DAB24E
:10299000BB791343DAB2FB791343DBB2BB813A7ADA
:1029A0007B7A1343DAB2BB7A1343DBB29BB21B02CE
:1029B0009AB2BB891343BB81114B1B681B68BA8950
:1029C0001046984700233B7000237B703A787B7851
:1029D0001343DBB2BB810A4B1B689B6ABA89D2B234
:1029E00010469847064B1B68DB6A10209847002367
:1029F000FB73FB7B18461037BD4680BDCC00002022
:102A00000008002080B582B000AF7860064B1B68DC
:102A10001B6B002B04D0044B1B681B6B786898471A
:102A200000BF0837BD4680BD0008002080B500AF5C
:102A30002D4B2E4A1A602C4B09225A612A4B012237
:102A40009A61294B1D22DA61274B03221A62264B19
:102A500040F20D125A62244B40F243129A62224B0A
:102A600040F21712DA62204B40F247121A631E4BF3
:102A7000002283F836201C4B002283F834201A4BA6
:102A8000002283F835201A4B08221A60184BC02206
:102A90001A61174B04229A61154B4FF400325A62A7
:102AA000134804F0A3FA104B00225A600E4B002288
:102AB0009A600D4B0022DA600B4B00221A6100F085
:102AC0000FFC094802F086F80A4B0B4A1A60094BC2
:102AD0001B681B68984700F0F1FD084800F0CEF82D
:102AE0000023184680BD00BF040800200068014094
:102AF000EC08002038090020940000200401002088
:102B000080B500AF034B1B689B6A98470346184685
:102B100080BD00BF3809002080B500AF034B1B68A3
:102B2000DB6A98470346184680BD00BF380900207D
:102B300080B590B000AF03463960FB800023FB6096
:102B4000FFF7DEFF03463B6100237B61FFF7E4FFF5
:102B50000346BB610023FB613B683B63FF233B6291
:102B600000237B62002387F83C30002387F83D3048
:102B7000002387F83E304FF4C063BB620723FB623B
:102B8000FFF7BEFF03467B63FFF7C6FF0346BB6349
:102B9000FA8807F10C031946144802F0F5F8FA8890
:102BA000134913465B0013449B000B4404334FF05E
:102BB000FF321A60FA880E4913465B0013449B00EB
:102BC0000B4408330B4A1A60FA88094913465B0024
:102BD00013449B000B444FF07F421A60034802F0FD
:102BE00011F900BF4037BD4680BD00BF040800207A
:102BF000200900200401002080B483B000AF786079
:102C0000044A7B68136000BF0C37BD465DF8047B47
:102C1000704700BF1C09002080B483B000AF78600B
:102C2000074B1A68074913465B0013449B000B448B
:102C30007A681A6000BF0C37BD465DF8047B7047A8
:102C40001C0900202009002080B483B000AF786008
:102C5000084B1A68084913465B0013449B000B4459
:102C600004337A681A6000BF0C37BD465DF8047BF8
:102C7000704700BF1C0900202009002080B483B0E9
:102C800000AF7860084B1A68084913465B0013448C
:102C90009B000B4408337A681A6000BF0C37BD46AE
:102CA0005DF8047B704700BF1C090020200900204C
:102CB00080B400AF074B1A68074913465B00134402
:102CC0009B000B4408331B681846BD465DF8047B27
:102CD000704700BF1C09002020090020F0B585B016
:102CE00002AF78600F4B1C680E4B1B680E4A3421F4
:102CF00001FB03F313445C331B681E46FFF700FF20
:102D00000546FFF709FF02467B6801930023009305
:102D100013462A463146204600F098FC00BF0C3787
:102D2000BD46F0BD1C0900200408002090B583B00A
:102D300000AF0346FB800B46BB801346FB701B4B6A
:102D40001A681B4913465B0013449B000B4408336D
:102D50001B681968FB78A3F12000144B1A68144C07
:102D600013465B0013449B00234408331B68DB8835
:102D700003FB00F00D4B1A680D4C13465B00134427
:102D80009B00234408331B689B880733002B00DA21
:102D90000733DB1000FB03F3CA18B988FB88184619
:102DA00000F09AFB00BF0C37BD4690BD1C09002007
:102DB00020090020B0B588B000AFBA601A460346BB
:102DC000FB810B46BB811346FB710123FB83002370
:102DD000BB830023BB6100233B61BB687B6102E0D6
:102DE000BB690133BB617B695A1C7A611B78002B7C
:102DF000F6D1FFF785FE01464B4B1A684B48134648
:102E00005B0013449B00034408331B689B88B1FBA1
:102E1000F3F33B61FB79032B1CD0032B33DC012B39
:102E200002D0022B19D02EE03A69BB69D11A3E4B71
:102E30001A683E4813465B0013449B000344083362
:102E40001B689B8801FB03F35B089AB2FB89134460
:102E5000FB831BE0FB89FB8318E03A69BB69D31A4B
:102E600099B2314B1A68314813465B0013449B00FA
:102E7000034408331B689B8811FB03F39AB2FB8958
:102E80001344FB8302E0FB89FB8300BF1AE0BB68AD
:102E90001A78B989FB8B1846FFF748FF224B1A684E
:102EA000224913465B0013449B000B4408331B6804
:102EB0009A88FB8B1344FB83BB680133BB60BB8BDD
:102EC0000133BB83BB681B78002B14BF0123002395
:102ED000DCB2FFF715FEB98B134B1A68134D13467E
:102EE0005B0013449B002B4408331B689B8801FB49
:102EF00003F3C31A99B20C4B1A680C4813465B00D3
:102F000013449B00034408331B689B8899422CBFE1
:102F100001230023DBB22340DBB2002BB7D100BF7B
:102F200000BF2037BD46B0BD1C090020200900208D
:102F3000B0B586B002AF0346FB800B46BB8013469C
:102F40007B800023FB60164B1B68164A342101FB73
:102F500003F313445C331C68FFF7D2FD0246BB88C1
:102F600003FB02F2FB8813449B002344FB600C4BE1
:102F70001868F9687C880A4B1A680B4D13465B0089
:102F800013449B002B441B680193002300930123EF
:102F9000224600F05BFB00BF1037BD46B0BD00BF4E
:102FA0001C090020040800202009002090B587B0EB
:102FB00000AF0346FB800B46BB8013467B807B88BB
:102FC0005B00C3F103037B6100233B617B88FB60F3
:102FD000C7E03B699AB2FB88134498B2FB689BB286
:102FE000BA88D31A99B2644B1A68644C13465B00D2
:102FF00013449B0023441B681A4600F047FA3B69C0
:103000009BB2FA88D31A98B2FB689BB2BA88D31ADB
:1030100099B2594B1A68594C13465B0013449B00F4
:1030200023441B681A4600F031FAFB689AB2FB8809
:10303000134498B23B699BB2BA88D31A99B24E4BEB
:103040001A684E4C13465B0013449B0023441B68D4
:103050001A4600F01BFAFB689BB2FA88D31A98B2A2
:103060003B699BB2BA88D31A99B2434B1A68434C56
:1030700013465B0013449B0023441B681A4600F070
:1030800005FA3B699AB2FB88134498B2FB689AB27E
:10309000BB88134499B2384B1A68384C13465B000E
:1030A00013449B0023441B681A4600F0EFF93B6968
:1030B0009BB2FA88D31A98B2FB689AB2BB881344C1
:1030C00099B22D4B1A682D4C13465B0013449B009C
:1030D00023441B681A4600F0D9F9FB689AB2FB88B2
:1030E000134498B23B699AB2BB88134499B2224BFD
:1030F0001A68224C13465B0013449B0023441B6850
:103100001A4600F0C3F9FB689BB2FA88D31A98B24A
:103110003B699AB2BB88134499B2174B1A68174C93
:1031200013465B0013449B0023441B681A4600F0BF
:10313000ADF97B69002B06DA3B699A007B69134481
:1031400006337B610AE03A69FB68D31A9A007B690F
:1031500013440A337B61FB68013BFB603B6901332D
:103160003B613A69FB689A427FF633AF00BF00BF0C
:103170001C37BD4690BD00BF1C090020200900205F
:1031800080B586B000AF0346FB800B46BB8013467C
:103190007B807B885B00C3F103037B6100233B6181
:1031A0007B88FB60444B1A68444913465B00134418
:1031B0009B000B441B681846FFF72EFD61E0FB687F
:1031C000002B21D0FB689BB2FA88D31A98B23B69D6
:1031D0009AB2BB88134499B2FB689BB25B009BB266
:1031E0001A46FFF7A5FEFB689BB2FA88D31A98B27D
:1031F0003B699BB2BA88D31A99B2FB689BB25B0059
:103200009BB21A46FFF794FE3B69002B21D03B6925
:103210009BB2FA88D31A98B2FB689BB2BA88D31AC9
:1032200099B23B699BB25B009BB21A46FFF780FEE6
:103230003B699BB2FA88D31A98B2FB689AB2BB88F2
:10324000134499B23B699BB25B009BB21A46FFF7ED
:103250006FFE7B69002B06DA3B699A007B69134499
:1032600006337B610AE03A69FB68D31A9A007B69EE
:1032700013440A337B61FB68013BFB603B6901330C
:103280003B613A69FB689A4299D90B4B1A680B4922
:1032900013465B0013449B000B441B681846FFF762
:1032A000BBFC7A88B988FB881846FFF77FFE00BF11
:1032B0001837BD4680BD00BF1C0900202009002032
:1032C00080B500AF054B1B689B68002B03D0034BF8
:1032D0001B689B68984700BF80BD00BF380900206D
:1032E00080B58EB000AF00233B62614B5B6C604ADF
:1032F00043F0806353645E4B5B6C03F080633B621E
:103300003B6A0023FB615A4B1B6B594A43F4000391
:103310001363574B1B6B03F40003FB61FB69002332
:10332000BB61534B1B6B524A43F001031363504B79
:103330001B6B03F00103BB61BB6900237B614C4B3A
:103340001B6B4B4A43F002031363494B1B6B03F0A7
:1033500002037B617B6900233B61454B1B6B444A45
:1033600043F004031363424B1B6B03F004033B6104
:103370003B690023FB603E4B1B6B3D4A43F0080357
:1033800013633B4B1B6B03F00803FB60FB680023DC
:10339000BB60374B1B6B364A43F020031363344B3F
:1033A0001B6B03F02003BB60BB6800237B60304BCA
:1033B0001B6B2F4A43F0400313632D4B1B6B03F031
:1033C00040037B607B6841F658037B620223BB624B
:1033D0000023FB6202233B630E237B6307F124037C
:1033E0001946244801F024F94FF470637B6207F119
:1033F00024031946204801F01BF94FF498637B62BF
:1034000007F1240319461D4801F012F948237B6295
:1034100007F1240319461A4801F00AF94FF48063B2
:103420007B6207F124031946164801F001F94FF4B5
:103430000C637B6207F124031946134801F0F8F886
:1034400003237B6209237B6307F1240319460A489F
:1034500001F0EEF84FF4A0537B6207F12403194604
:10346000094801F0E5F800BF3837BD4680BD00BF10
:103470000038024000000240000402400008024000
:10348000000C02400014024000180240B0B582B0A7
:1034900000AF03463A60FB800B46BB800C4B1B68B9
:1034A0000C4A342101FB03F313445C331C68BD88D0
:1034B000FFF726FB034603FB05F2FB8813449B0042
:1034C00023441A463B68136000BF0837BD46B0BDB1
:1034D0001C0900200408002080B588B000AF034616
:1034E0003A60FB800B46BB800023FB610023BB617D
:1034F00000237B61534B1A68534913465B00134406
:103500009B000B4408331B68DB887B824D4B1A6899
:103510004D4913465B0013449B000B4408331B6862
:103520009B883B823B8A0733002B00DA0733DB1092
:10353000DBB2DB00DAB23B8ADBB2D31AFB730023C7
:10354000FB6176E03B8A0733002B00DA0733DB10A0
:103550001A46FB6902FB03F33A681344BB603B8ADB
:103560000733002B00DA0733DB10012B02D0022BCC
:1035700004D00CE0BB681B787B6116E0BB681B784D
:103580001B02BA680132127813437B610DE0BB68FD
:103590001B781A04BB6801331B781B021343BA68FB
:1035A0000232127813437B6100BF0023BB6136E017
:1035B0003A8ABB69D21AFB7B1344013B012202FA0F
:1035C00003F31A467B691340002B12D0BB699AB2F1
:1035D000FB88134498B21B4B1A681B4913465B00C7
:1035E00013449B000B441A68BB881946FFF74EFF33
:1035F00012E0BB699AB2FB88134498B2114B1A6867
:10360000114913465B0013449B000B4404331A68B2
:10361000BB881946FFF73AFFBB690133BB613B8AA0
:10362000BA699A42C4D3BB880133BB80FB690133BA
:10363000FB617B8AFA699A4284D300BF00BF2037BE
:10364000BD4680BD1C0900202009002080B586B041
:1036500002AFF860B9607A603B60164B4FF44032BD
:103660005A60144B00229A60124ABB69D360114B16
:10367000114A1A600F4800F045FD0346002B15D192
:10368000F9680C4800F0A6FE0346002B0ED1BA687C
:103690003B6800937B68F969064800F086FD0346A5
:1036A000002B03D10A21034800F0AAFD00BF103708
:1036B000BD4680BDAC08002000B0024080B500AF20
:1036C000294B2A4A1A602A4B02221A60284B0722E9
:1036D0005A60274B04229A60254B0722DA60244B5C
:1036E00002221A61224B02225A61214B02229A6164
:1036F0001D4B01225A601C4B00229A601A4B042277
:10370000DA60194B10221A61174B40225A61164B8E
:103710004FF4C0729A61144B0022DA61124B4FF4DD
:1037200000621A62104B00225A620F4B4FF4005293
:103730009A6200210C4800F07FF80D490A4803F016
:1037400015FE0346002B03D00A4B01221A7002E03B
:10375000084B00221A7040F26A5000F00DF8054B39
:103760001B78184680BD00BF3C090020400100A026
:10377000700900201401002080B584B000AF78608B
:103780000023FB602A4B01221A60294B08225A6051
:10379000274B01229A60264B0022DA604FF6FF7217
:1037A0002349244803F020FE012000F093F9204B28
:1037B00002221A601E4B08225A601D4B01229A6099
:1037C0001B4B0022DA604FF6FF721949194803F0CB
:1037D0000BFE174B03221A60154B08225A60144B3C
:1037E00004229A60124B0022DA604FF6FF721049F1
:1037F000104803F0F9FD4FF40C73FB600C4B0422EE
:103800001A600B4B08225A60094B01229A60FB6830
:10381000074AD3604FF6FF720549064803F0E4FDFE
:103820007968044803F015FE00BF1037BD4680BD1F
:103830008C0900203C09002080B590B000AF786072
:1038400039607B68002B00F0EC800023BB62774B73
:103850009B6B764A43F001039363744B9B6B03F0BD
:103860000103BB62BB6A00237B62704B1B6B6F4A18
:1038700043F4800313636D4B1B6B03F480037B6283
:103880007B6A00233B62694B1B6B684A43F002036F
:103890001363664B1B6B03F002033B623B6A00231E
:1038A000FB61624B1B6B614A43F0040313635F4B84
:1038B0001B6B03F00403FB61FB690023BB615B4BE3
:1038C0001B6B5A4A43F008031363584B1B6B03F0FE
:1038D0000803BB61BB6900237B61544B1B6B534ADC
:1038E00043F010031363514B1B6B03F010037B6118
:1038F0007B6900233B614D4B1B6B4C4A43F020031B
:1039000013634A4B1B6B03F020033B613B690023AD
:10391000FB60464B1B6B454A43F040031363434B2C
:103920001B6B03F04003FB60FB6802233B63022335
:10393000BB6300237B630C23FB636023FB6207F103
:103940002C0319463A4800F073FE0123FB6207F18D
:103950002C031946374800F06BFE4CF20373FB62F0
:1039600007F12C031946344800F062FE4FF68373CA
:10397000FB6207F12C031946304800F059FE4FF660
:103980003F03FB6207F12C0319462D4800F050FE5F
:1039900048F23313FB6207F12C031946294800F063
:1039A00047FE294B00225A60274B80229A60264B03
:1039B0004FF40072DA60244B4FF480621A61224B9C
:1039C0004FF480525A61204B4FF480429A611E4B53
:1039D0000022DA611C4B4FF400321A621A4B0022AB
:1039E0005A62194B03229A62174B0022DA62164B75
:1039F00000221A63144B154A1A607B68124A1A6334
:103A0000114A7B689363104800F04AFA0E4800F0B0
:103A100099F900220F21382000F05CF9382000F0DD
:103A200075F900BF4037BD4680BD00BF0038024079
:103A30000004024000080240000C02400010024056
:103A400000140240001802409C090020106402404B
:103A500080B500AF0E4B1B680D4A43F40073136032
:103A60000B4B1B680A4A43F480631360084B1B68C6
:103A7000074A43F480731360032000F020F90F20FD
:103A8000FDF780FFFDF7E0FE0023184680BD00BF74
:103A9000003C024080B400AF064B1B781A46064B30
:103AA0001B681344044A136000BFBD465DF8047BE5
:103AB000704700BF1C010020FC09002080B400AF4B
:103AC000034B1B681846BD465DF8047B704700BF7A
:103AD000FC09002080B584B000AF7860FFF7EEFFEE
:103AE000B8607B68FB60FB68B3F1FF3F05D00A4B11
:103AF0001B781A46FB681344FB6000BFFFF7DEFF2C
:103B00000246BB68D31AFA689A42F7D800BF00BFD2
:103B10001037BD4680BD00BF1C01002080B485B0B9
:103B200000AF78607B6803F00703FB600C4BDB6839
:103B3000BB60BA684FF6FF031340BB60FB681A0214
:103B4000BB68134343F0BF6343F40033BB60044AD4
:103B5000BB68D36000BF1437BD465DF8047B704777
:103B600000ED00E080B400AF044BDB681B0A03F0FB
:103B700007031846BD465DF8047B704700ED00E082
:103B800080B483B000AF0346FB7197F90730002B78
:103B90000BDBFB7903F01F02074997F907305B093C
:103BA000012000FA02F241F8232000BF0C37BD4685
:103BB0005DF8047B704700BF00E100E080B483B093
:103BC00000AF0346FB7197F90730002B12DBFB793E
:103BD00003F01F020A4997F907305B09012000FA38
:103BE00002F2203341F82320BFF34F8F00BFBFF311
:103BF0006F8F00BF00BF0C37BD465DF8047B704778
:103C000000E100E080B483B000AF03463960FB718F
:103C100097F90730002B0ADB3B68DAB20C4997F9B9
:103C200007301201D2B20B4483F800230AE03B684C
:103C3000DAB20849FB7903F00F03043B1201D2B258
:103C40000B441A7600BF0C37BD465DF8047B704705
:103C500000E100E000ED00E080B489B000AFF86062
:103C6000B9607A60FB6803F00703FB61FB69C3F18D
:103C70000703042B28BF0423BB61FB690433062B15
:103C800002D9FB69033B00E000237B614FF0FF3268
:103C9000BB6902FA03F3DA43BB681A407B699A40B6
:103CA0004FF0FF317B6901FA03F3D9437B680B4086
:103CB000134318462437BD465DF8047B704780B532
:103CC00082B000AF78607868FFF728FF00BF083740
:103CD000BD4680BD80B586B000AF0346B9607A604E
:103CE000FB7300237B61FFF73DFF78617A68B96859
:103CF0007869FFF7B1FF024697F90F301146184671
:103D0000FFF780FF00BF1837BD4680BD80B582B089
:103D100000AF0346FB7197F907301846FFF730FFF5
:103D200000BF0837BD4680BD80B582B000AF0346F6
:103D3000FB7197F907301846FFF740FF00BF0837BF
:103D4000BD4680BD80B586B000AF786000237B6142
:103D5000FFF7B4FE38617B68002B01D1012399E0A5
:103D60007B68022283F835207B68002283F83420A8
:103D70007B681B681A687B681B6822F001021A6066
:103D80000FE0FFF79BFE02463B69D31A052B08D9CB
:103D90007B6820225A657B68032283F83520032341
:103DA00078E07B681B681B6803F00103002BE8D1F7
:103DB0007B681B681B687B617A69384B13407B61A9
:103DC0007B685A687B689B681A437B68DB681A4388
:103DD0007B681B691A437B685B691A437B689B6934
:103DE0001A437B68DB691A437B681B6A13437A6951
:103DF00013437B617B685B6A042B07D17B68DA6ABB
:103E00007B681B6B13437A6913437B617B681B6878
:103E10007A691A607B681B685B697B617B6923F048
:103E200007037B617B685B6A7A6913437B617B680C
:103E30005B6A042B17D17B689B6A7A6913437B61A9
:103E40007B68DB6A002B0ED0786800F0DFF8034651
:103E5000002B08D07B6840225A657B68012283F8DA
:103E60003520012316E07B681B687A695A617868FF
:103E700000F096F80346FB607B68DB6D3F229A40BA
:103E8000FB689A607B6800225A657B68012283F890
:103E90003520002318461837BD4680BD3F8010F0FE
:103EA00080B584B000AF78607B68002B01D101231E
:103EB00050E07B6893F83530DBB2022B01D102234E
:103EC00048E07B681B681A687B681B6822F0010267
:103ED0001A607B681B6800221A607B681B680022DE
:103EE0005A607B681B6800229A607B681B6800220E
:103EF000DA607B681B6800221A617B681B682122DC
:103F00005A61786800F04CF80346FB607B68002239
:103F1000DA637B6800221A647B6800225A647B683B
:103F200000229A647B680022DA647B6800221A65AA
:103F30007B68DB6D3F229A40FB689A607B680022B9
:103F40005A657B68002283F835207B68002283F85D
:103F50003420002318461037BD4680BD80B483B09E
:103F600000AF78607B6893F83530DBB2022B04D069
:103F70007B6880225A6501230CE07B68052283F868
:103F800035207B681B681A687B681B6822F0010279
:103F90001A60002318460C37BD465DF8047B704755
:103FA00080B485B000AF78607B681B68DBB2103BE3
:103FB000144AA2FB03231B09FB60134AFB6813444A
:103FC0001B781A467B68DA65FB68032B09D97B6886
:103FD0001B6823F47F7323F003031A1D7B689A6523
:103FE00007E07B681B6823F47F7323F003037A6880
:103FF00093657B689B6D18461437BD465DF8047B5E
:10400000704700BFABAAAAAACC57010880B485B0FC
:1040100000AF78600023FB737B689B6ABB607B68A2
:104020009B69002B1FD1BB68032B56D801A252F805
:1040300023F000BF454000085740000845400008F5
:10404000DB4000087B68DB6A03F08073002B46D0FE
:104050000123FB7343E07B68DB6AB3F1C07F40D18F
:104060000123FB733DE07B689B69B3F5005F21D1C1
:10407000BB68032B37D801A252F823F08D4000080B
:10408000934000088D400008A54000080123FB7301
:1040900030E07B68DB6A03F08073002B25D00123BE
:1040A000FB7322E07B68DB6AB3F1C07F1FD1012381
:1040B000FB731CE0BB68022B03D9BB68032B03D046
:1040C00018E00123FB7315E07B68DB6A03F0807363
:1040D000002B0ED00123FB730BE000BF0AE000BFF2
:1040E00008E000BF06E000BF04E000BF02E000BF40
:1040F00000E000BFFB7B18461437BD465DF8047B2B
:10410000704700BF80B582B000AF78607B68002B3D
:1041100001D101233BE07B6893F83930DBB2002BFF
:1041200006D17B68002283F83820786800F033F8E5
:104130007B68022283F839207B681B681B6823F4A4
:1041400040317B685A687B681B680A431A607B6849
:104150001B685B6B23F007017B689A687B681B68B0
:104160000A435A637B681B681B6C23F47F5323F05C
:104170003F037A68D1687A6812680B4313647B68DE
:104180000022DA637B68012283F839200023184675
:104190000837BD4680BD80B483B000AF786000BFF3
:1041A0000C37BD465DF8047B704780B586B002AF22
:1041B000F860B9607A603B60FB6893F83830012B97
:1041C00001D1022318E0FB68012283F83820FB6844
:1041D000022283F83920BB6900933B687A68B9688A
:1041E000F86800F089F9FB681B681A68FB681B68AF
:1041F00042F001021A60002318461037BD4680BD08
:1042000080B586B000AF786039600023FB607B68C2
:104210001B681B6803F00103002B56D0FFF74EFC10
:1042200078614BE07B681B685B68FB60FB6803F0B0
:104230002103002B23D0FB6803F02003002B05D0C3
:104240007B68DB6B43F002027B68DA63FB6803F098
:104250000103002B05D07B68DB6B43F001027B6818
:10426000DA637B681B6821229A607B68042283F8EA
:1042700039207B68002283F838200123A5E03B68C1
:10428000B3F1FF3F1AD0FFF719FC02467B69D31A3E
:104290003A689A4202D33B68002B0FD17B68DB6BF4
:1042A00043F020027B68DA637B68032283F83920BD
:1042B0007B68002283F83820032386E07B681B6834
:1042C0005B6803F00203002BACD07B681B68DB69E2
:1042D00003F020033B617B681B685B6A03F02003EB
:1042E0003A6913433B613B69002B61D0FFF7E6FB62
:1042F000786156E07B681B685B68FB60FB6803F0D5
:104300002903002B2ED0FB6803F00803002B05D0F7
:104310007B68DB6B43F004027B68DA63FB6803F0C5
:104320002003002B05D07B68DB6B43F002027B6827
:10433000DA63FB6803F00103002B05D07B68DB6BBD
:1043400043F001027B68DA637B681B6829229A606C
:104350007B68042283F839207B68002283F83820A8
:10436000012332E03B68B3F1FF3F1AD0FFF7A6FB11
:1043700002467B69D31A3A689A4202D33B68002B03
:104380000FD17B68DB6B43F020027B68DA637B68CC
:10439000032283F839207B68002283F83820032326
:1043A00013E07B681B685B6803F01003002BA1D04F
:1043B0007B681B6812229A607B68012283F839208F
:1043C0007B68002283F83820002318461837BD4642
:1043D00080BD000080B487B000AF786039607B6832
:1043E0005B68B3F5403F7B6893F83830012B01D10F
:1043F000022379E07B68012283F838207B6802225F
:1044000083F839203B681B0118337A6813443B61F9
:104410003B695A683B699B681B0413437B61354BBE
:10442000FB603B695B680A2B03D03B695B68092B27
:1044300007D13B69DB6803F07F437A6913437B61F3
:1044400005E03B69DB681B067A6913437B613B68C7
:10445000002B20D17B681B685A6AFB68DB4302EAA9
:1044600003017B681B687A690A435A627B681B6890
:104470003A6912689A613B695B680A2B03D03B6911
:104480005B68092B27D13B69DA687B681B6822F0DF
:104490007F429A621FE07B681B68DA69FB68DB4336
:1044A00002EA03017B681B687A690A43DA617B6868
:1044B0001B683A6912681A613B695B680A2B03D072
:1044C0003B695B68092B06D13B69DA687B681B682E
:1044D00022F07F421A627B68012283F839207B68D0
:1044E000002283F83820002318461C37BD465DF8AB
:1044F000047B70470F0003FF80B48BB000AFF860FF
:10450000B9607A603B60FB681B685B6C03F04041FC
:104510003B681A043B6B1A43FB681B680A435A64E6
:10452000FB681B687A68DA63FB685B68B3F5403F39
:1045300074D1BB6803F07F433B62BB6803F47F0325
:10454000FB61BB6803F47F43BB61BB68DBB27B618B
:10455000FB689B68002B08D1BA69FB691A433B6A68
:1045600013437A6913437B6253E0FB689B68012B1A
:1045700006D1BA69FB6913437A6913437B6248E049
:10458000FB689B68022B11D1FB69DB0CFB61BB69EB
:104590009B0ABB617B69DB087B61BB695A01FB69D4
:1045A000DB0213437A6913437B6232E0FB689B684A
:1045B000032B17D13B6ADB0F3B62FB69DB0CFB6112
:1045C000BB69DB0ABB617B69DB087B61BB695A01A4
:1045D000FB699B021A433B6ADB0313437A6913436B
:1045E0007B6216E03B6A1B0F3B62FB691B0DFB61A4
:1045F000BB691B0BBB617B691B097B61BB691A0132
:10460000FB691B021A433B6A1B0313437A6913437A
:104610007B62FB681B687A6A9A6303E0FB681B682D
:10462000BA68DA6000BF2C37BD465DF8047B70477E
:1046300080B489B000AF7860396000237B610023CB
:104640003B610023BB610023FB6177E10122FB6931
:1046500002FA03F37B613B681B687A6913403B6194
:104660003A697B699A4240F066813B685B6803F077
:104670000303012B05D03B685B6803F00303022BA7
:1046800030D17B689B68BB61FB695B00032202FA47
:1046900003F3DB43BA691340BB613B68DA68FB692B
:1046A0005B0002FA03F3BA691343BB617B68BA6922
:1046B0009A607B685B68BB610122FB6902FA03F3C5
:1046C000DB43BA691340BB613B685B681B0903F0BD
:1046D0000102FB6902FA03F3BA691343BB617B6809
:1046E000BA695A603B685B6803F00303032B17D079
:1046F0007B68DB68BB61FB695B00032202FA03F3A2
:10470000DB43BA691340BB613B689A68FB695B0095
:1047100002FA03F3BA691343BB617B68BA69DA60D2
:104720003B685B6803F00303022B23D1FB69DA08C3
:104730007B68083253F82230BB61FB6903F0070342
:104740009B000F2202FA03F3DB43BA691340BB61FB
:104750003B681A69FB6903F007039B0002FA03F345
:10476000BA691343BB61FB69DA087B680832B9692F
:1047700043F822107B681B68BB61FB695B00032266
:1047800002FA03F3DB43BA691340BB613B685B6821
:1047900003F00302FB695B0002FA03F3BA691343F7
:1047A000BB617B68BA691A603B685B6803F440339D
:1047B000002B00F0C0800023FB60664B5B6C654AF9
:1047C00043F480435364634B5B6C03F48043FB60AE
:1047D000FB68614AFB699B08023352F82330BB61D6
:1047E000FB6903F003039B000F2202FA03F3DB4390
:1047F000BA691340BB617B68584A934237D07B68E3
:10480000574A934231D07B68564A93422BD07B68FB
:10481000554A934225D07B68544A93421FD07B6807
:10482000534A934219D07B68524A934213D07B6813
:10483000514A93420DD07B68504A934207D07B681F
:104840004F4A934201D1092312E00A2310E00823C2
:104850000EE007230CE006230AE0052308E004230A
:1048600006E0032304E0022302E0012300E000232A
:10487000FA6902F0030292009340BA691343BB61E4
:104880003549FB699B080233BA6941F823203D4B47
:104890009B68BB613B69DB43BA691340BB613B6802
:1048A0005B6803F48013002B03D0BA693B691343A0
:1048B000BB61344ABB699360324BDB68BB613B69C7
:1048C000DB43BA691340BB613B685B6803F40013C8
:1048D000002B03D0BA693B691343BB61294ABB690A
:1048E000D360284B5B68BB613B69DB43BA6913400B
:1048F000BB613B685B6803F40033002B03D0BA69EB
:104900003B691343BB611F4ABB6953601D4B1B6866
:10491000BB613B69DB43BA691340BB613B685B68C1
:1049200003F48033002B03D0BA693B691343BB61A6
:10493000144ABB691360FB690133FB61FB690F2BF0
:104940007FF684AE00BF00BF2437BD465DF8047B10
:10495000704700BF003802400038014000000240AC
:104960000004024000080240000C02400010024017
:104970000014024000180240001C024000200240C7
:1049800000240240003C014080B487B000AF786052
:10499000396000233B610023FB600023BB600023E0
:1049A0007B61D9E001227B6902FA03F33B613A683B
:1049B0003B691340FB60FA683B699A4240F0C9804A
:1049C0006B4A7B699B08023352F82330BB607B69DA
:1049D00003F003039B000F2202FA03F3BA681340AB
:1049E000BB607B68634A934237D07B68624A9342DC
:1049F00031D07B68614A93422BD07B68604A9342F6
:104A000025D07B685F4A93421FD07B685E4A934201
:104A100019D07B685D4A934213D07B685C4A93420D
:104A20000DD07B685B4A934207D07B685A4A934219
:104A300001D1092312E00A2310E008230EE0072326
:104A40000CE006230AE0052308E0042306E0032324
:104A500004E0022302E0012300E000237A6902F06F
:104A6000030292009340BA689A4232D14B4B1A68C3
:104A7000FB68DB43494913400B60484B5A68FB68AD
:104A8000DB43464913404B60444BDA68FB68DB4329
:104A900042491340CB60414B9A68FB68DB433F4976
:104AA00013408B607B6903F003039B000F2202FA23
:104AB00003F3BB602E4A7B699B08023352F8231034
:104AC000BB68DA432A487B699B080A40023340F8F6
:104AD00023207B681A687B695B00032101FA03F3DA
:104AE000DB431A407B681A607B69DA087B6808320E
:104AF00053F822107B6903F007039B000F2202FA90
:104B000003F3DB437A69D20819407B68083243F823
:104B100022107B68DA687B695B00032101FA03F3EA
:104B2000DB431A407B68DA607B685A6801217B6945
:104B300001FA03F3DB431A407B685A607B689A688A
:104B40007B695B00032101FA03F3DB431A407B68B6
:104B50009A607B6901337B617B690F2B7FF622AF03
:104B600000BF00BF1C37BD465DF8047B704700BF27
:104B700000380140000002400004024000080240EA
:104B8000000C0240001002400014024000180240D5
:104B9000001C02400020024000240240003C014072
:104BA00080B483B000AF78600B467B8013467B7087
:104BB0007B78002B03D07A887B689A6103E07B883E
:104BC0001A047B689A6100BF0C37BD465DF8047B10
:104BD0007047000080B584B000AF78607B68002B20
:104BE00001D10123BFE07B6893F8A130DBB2002B39
:104BF00006D17B68002283F8A020786800F0BAF81C
:104C00007B68022283F8A1207B681B689A697B6815
:104C10001B6822F070429A617B681B6899697B6807
:104C20005A687B689B681A437B68DB681A437B6819
:104C30001B691A437B681B680A439A617B681B687F
:104C400099687B681A684A4B0B4093607B685B6984
:104C50001B04FB607B681B6899687B689A69FB682A
:104C60001A437B681B680A439A607B681B68D96893
:104C70007B681A683E4B0B40D3607B68DB691B0482
:104C8000FB607B681B68D9687B681A6AFB681A43FB
:104C90007B681B680A43DA607B681B6819697B685C
:104CA0001A68334B0B4013617B685B6A1B04FB6023
:104CB0007B681B6819697B689A6AFB681A437B6882
:104CC0001B680A431A617B681B6859697B681A680C
:104CD000274B0B4053617B68DB6A1B04FB607B68DE
:104CE0001B6859697B681A6BFB681A437B681B68F1
:104CF0000A435A617B6893F835301B02FB607B687E
:104D000093F836301B04BB607B681B68DA6A7B68EB
:104D10001B6802F07F42DA627B681B68D96ABA6856
:104D2000FB6813437A6892F834201A437B681B6847
:104D30000A43DA627B681B685A6B7B681B6842F027
:104D400006025A637B681B689A697B681B6842F09D
:104D500001029A617B680022C3F8A4207B680122CB
:104D600083F8A120002318461037BD4680BD00BF40
:104D700000F800F080B483B000AF786000BF0C375B
:104D8000BD465DF8047B7047B0B584B000AFF860F5
:104D9000B9607A60FB6893F8A030012B01D102233F
:104DA0002CE0FB68012283F8A020FB68022283F834
:104DB000A120FA687B68342101FB03F3134403F15B
:104DC0003802BB6814461D460FCD0FC40FCD0FC46B
:104DD0000FCD0FC42B6823607A68B968F86800F0BB
:104DE0003BF8FB681B6801225A62FB68012283F8CA
:104DF000A120FB68002283F8A0200023184610376A
:104E0000BD46B0BD80B483B000AF78607B6893F8D6
:104E1000A030012B01D1022316E07B68012283F828
:104E2000A0207B68022283F8A1200A4B9B69094AD3
:104E300043F4803393617B68012283F8A1207B686F
:104E4000002283F8A020002318460C37BD465DF8E9
:104E5000047B70470068014080B489B000AFF860FF
:104E6000B9607A60BB685A68FB681B68DB681B0C1A
:104E7000C3F30B0313441B04FB61FB681B681A4656
:104E80007B68DB01134484335B68FA68126811465F
:104E90007A68D2010A44843203F470435360BB68D9
:104EA0001A68FB681B68DB681B0CC3F30B03134415
:104EB0005A1CFB681B6819467B68DB010B44843372
:104EC0001946FB6913434B60BB68DA68FB681B68D3
:104ED000DB68C3F30A0313441B04FB61FB681B6814
:104EE0001A467B68DB01134484339B68FA681268B6
:104EF00011467A68D2010A44843203F47043936005
:104F0000BB689A68FB681B68DB68C3F30A03134439
:104F10005A1CFB681B6819467B68DB010B44843311
:104F20001946FB6913438B60FB681B681A467B6854
:104F3000DB01134484331B69FA68126811467A68EE
:104F4000D2010A44843223F007031361FB681B6813
:104F50001A467B68DB01134484331A46BB681B691D
:104F60001361BB6893F831301B02FB61BB6893F897
:104F700032301B04BB61BB689B691B067B61FB680D
:104F80001B681A467B68DB01134484339B69FB680A
:104F90001B681A467B68DB01134484331A460023DE
:104FA0009361BB6893F830301A46FB691A43BB69BA
:104FB0001A43FB681B6819467B68DB010B4484338A
:104FC00019467B6913438B61FB681B681A467B6833
:104FD000DB01134484335B69FA68126811467A680E
:104FE000D2010A44843223F0FF035361FB681B683B
:104FF0001A467B68DB01134484331A46BB685B693D
:105000005361FB681B681A467B68DB0113448433D9
:10501000DB69FA68126811467A68D2010A44843260
:1050200023F4E06323F00703D361BB68DA69BB684C
:105030001B6AF968096808467968C9010144843126
:105040001343CB61FB681B681A467B68DB01134482
:1050500084339B6AFB681B681A467B68DB01134438
:1050600084331A4600239362FB681B681A467B68E8
:10507000DB01134484331A46BB685B6A9362BB68E6
:105080001B69002B02D10423FB611BE0BB681B6979
:10509000012B02D10323FB6114E0BB681B69042BC5
:1050A0000BD0BB681B69022B07D0BB681B69032BA5
:1050B00003D0BB681B69072B02D10223FB6101E00F
:1050C0000123FB61FB681B681A467B68DB01134404
:1050D0008433DB6AFA68126811467A68D2010A449E
:1050E000843203F0E023D362BB689B6AFA6902FB57
:1050F00003F31A04BB685968BB681B68CB1AF969CB
:1051000001FB03F30333F968096808467968C901AC
:10511000014484311343CB62FB681B681A467B68E9
:10512000DB01134484331B6BFA68126811467A68FA
:10513000D2010A44843223F4FF6323F0070313638C
:10514000FB681B681A467B68DB01134484331A46EC
:10515000BB68DB6A1363FB681B681A467B68DB016C
:10516000134484331B68FA68126811467A68D201C6
:105170000A44843243F00103136000BF2437BD4664
:105180005DF8047B7047F0B58FB00AAF78607B683C
:10519000002B01D101230FE17B681B68BB607B689A
:1051A00093F8BD34DBB2002B06D17B68002283F874
:1051B000BC24786808F070FD7B68032283F8BD2466
:1051C000BB68DB6B03F48073002B02D17B68002289
:1051D0001A617B681B68184603F03DFD7B681B68FD
:1051E0003B607E686D4606F110040FCC0FC50FCCF6
:1051F0000FC594E8030085E80300331D0ECB386823
:1052000003F014FC0346002B05D07B68022283F8D0
:10521000BD240123D0E07B681B680021184603F001
:105220002BFD0023FB734AE0FA7B79681346DB0011
:1052300013449B000B443D3301221A70FA7B7968BA
:105240001346DB0013449B000B443C33FA7B1A707B
:10525000FA7BFB7B98B279681346DB0013449B0012
:105260000B44443302461A80FA7B79681346DB000C
:1052700013449B000B44403300221A70FA7B796878
:105280001346DB0013449B000B44483300221A6092
:10529000FA7B79681346DB0013449B000B444C33C4
:1052A00000221A60FA7B79681346DB0013449B00E6
:1052B0000B44543300221A60FB7B0133FB73FA7BEF
:1052C0007B685B689A42AFD30023FB7344E0FA7BB0
:1052D00079681346DB0013449B000B4403F27D23E3
:1052E00000221A70FA7B79681346DB0013449B0096
:1052F0000B4403F51F73FA7B1A70FA7B7968134627
:10530000DB0013449B000B4403F5207300221A704A
:10531000FA7B79681346DB0013449B000B4403F5CA
:10532000227300221A60FA7B79681346DB0013446B
:105330009B000B4403F5237300221A60FA7B796803
:105340001346DB0013449B000B4403F52573002236
:105350001A60FB7B0133FB73FA7B7B685B689A42C4
:10536000B5D37B681B683B607E686D4606F1100410
:105370000FCC0FC50FCC0FC594E8030085E80300E0
:10538000331D0ECB386803F0C3FC0346002B05D059
:105390007B68022283F8BD2401230DE07B68002294
:1053A00083F838207B68012283F8BD247B681B6862
:1053B000184604F012FE002318461437BD46F0BD0F
:1053C00080B584B000AF78607B681B68FB607B6849
:1053D00093F8BC34012B01D1022320E07B68012229
:1053E00083F8BC247B689B6A012B09D17B689B698D
:1053F000012B05D0FB689B6B43F48032FB689A63FA
:105400007B681B68184603F015FC7B681B68184610
:1054100004F0C2FD7B68002283F8BC2400231846F8
:105420001037BD4680BD90B58DB000AF78607B6809
:105430001B683B623B6AFB617B681B68184604F093
:1054400080FE0346002B40F08A847B681B68184668
:1054500004F0E4FD0346002B00F08084FB6903F5B3
:1054600000639B681B0AC3F30D027B68C3F8FC242E
:105470007B681B68184604F0D1FD034603F0020365
:10548000022B07D17B681B685A697B681B6802F096
:1054900002025A617B681B68184604F0BFFD034690
:1054A00003F01003102B61D17B681B689A697B683D
:1054B0001B6822F010029A613B6A1B6ABB61BB69E0
:1054C00003F00F021346DB0013449B0003F51E7329
:1054D0007A68134404337B61BB695B0C03F00F03F0
:1054E000022B24D1BA6947F6F0731340002B35D054
:1054F0007B691969BB691B099BB2C3F30A039BB2A1
:105500001A46386A04F0F6FB7B691A69BB691B0905
:10551000C3F30A031A447B691A617B691A6ABB697F
:105520001B09C3F30A031A447B691A6216E0BB69BC
:105530005B0C03F00F03062B10D17B6803F2C4430E
:1055400008221946386A04F0D5FB7B691A6ABB69E0
:105550001B09C3F30A031A447B691A627B681B6840
:105560009A697B681B6842F010029A617B681B682D
:10557000184604F053FD034603F40023B3F5002F4F
:1055800040F0A78000237B627B681B68184604F00C
:1055900058FDB86299E0BB6A03F00103002B00F0EC
:1055A0008E807B681B687A6AD2B21146184604F076
:1055B0007CFD38613B6903F00103002B0CD07B6A52
:1055C0005A01FB69134403F530631A4601239360C3
:1055D000796A786800F0C2FE3B6903F00803002B8B
:1055E0000CD07B6A5A01FB69134403F530631A46F9
:1055F00008239360796A786800F098FF3B6903F0AC
:105600001003002B08D07B6A5A01FB69134403F591
:1056100030631A46102393603B6903F00203002BAA
:1056200030D03B6A5B6903F08003802B09D1FB69B2
:1056300003F500635B68FA6902F5006243F4806376
:1056400053607A6A1346DB0013449B0003F51E7314
:105650007A68134404337B617B69DB78012B08D1C2
:105660007B690022DA707B6ADBB21946786808F041
:1056700015FC7B6A5A01FB69134403F530631A4633
:10568000022393603B6903F02003002B08D07B6A60
:105690005A01FB69134403F530631A4620239360D3
:1056A0003B6903F40053002B09D07B6A5A01FB6964
:1056B000134403F530631A464FF4005393607B6A3A
:1056C00001337B62BB6A5B08BB62BB6A002B7FF461
:1056D00062AF7B681B68184604F0A0FC034603F425
:1056E0008023B3F5802F40F0DB807B681B68184671
:1056F00004F0C1FCB86200237B62CDE0BB6A03F01A
:105700000103002B00F0C2807B681B687A6AD2B26A
:105710001146184604F0E7FC38613B6903F00103C9
:10572000002B57D07B6A03F00F03012202FA03F328
:10573000FB60FB6903F500635A6BFB68DB43F969A7
:1057400001F5006113404B637B6A5A01FB69134406
:1057500003F510631A46012393607B681B69012BD4
:1057600032D179687A6A1346DB0013449B000B44FC
:105770004C33196878687A6A1346DB0013449B003F
:10578000034448331B68194478687A6A1346DB007F
:1057900013449B0003444C3319607B6A002B13D1E4
:1057A00079687A6A1346DB0013449B000B44543338
:1057B0001B68002B08D17B6818687B6803F2C44320
:1057C0001A46012104F0EEFC7B6ADBB219467868C8
:1057D00008F0DFFA3B6903F00803002B08D07B6A6E
:1057E0005A01FB69134403F510631A4608239360BA
:1057F0003B6903F01003002B08D07B6A5A01FB6958
:10580000134403F510631A46102393603B6903F0B9
:105810004003002B08D07B6A5A01FB69134403F54F
:1058200010631A46402393603B6903F00203002B88
:1058300023D0796A386A03F0CFFB7A6A1346DB001B
:1058400013449B0038337A68134404337B617B69CB
:10585000DB78012B08D17B690022DA707B6ADBB22E
:105860001946786808F02CFB7B6A5A01FB691344DF
:1058700003F510631A46022393603B6903F080032B
:10588000002B03D0796A786800F0DBFC7B6A013377
:105890007B62BB6A5B08BB62BB6A002B7FF42EAFE6
:1058A0007B681B68184604F0B9FB034603F000430D
:1058B000B3F1004F22D1FB6903F500635B68FA691D
:1058C00002F5006223F0010353607B6893F8F4341F
:1058D000012B08D17B68002283F8F424002178682A
:1058E00000F0C2FE02E0786808F0CAFA7B681B6824
:1058F0005A697B681B6802F000425A617B681B682A
:10590000184604F08BFB034603F40063B3F5006F05
:1059100012D1FB6903F500639B6803F00103012BBF
:1059200002D1786808F086FA7B681B685A697B6840
:105930001B6802F400625A617B681B68184604F019
:105940006DFB034603F48053B3F5805F40F0B780EE
:10595000FB6903F500635B68FA6902F5006223F0F6
:10596000010353607B681B681021184603F034FB69
:105970000023FB6246E0FB6A5A01FB69134403F50E
:1059800010631A464FF67F339360FB6A5A01FB6936
:10599000134403F510631B68FA6A5101FA690A445B
:1059A00002F5106223F400131360FB6A5A01FB69CD
:1059B000134403F530631A464FF67F339360FB6A56
:1059C0005A01FB69134403F530631B68FA6A5101FD
:1059D000FA690A4402F5306223F400131360FB6A8B
:1059E0005A01FB69134403F530631B68FA6A5101DD
:1059F000FA690A4402F5306243F000631360FB6AFF
:105A00000133FB627B685B68FA6A9A42B3D3FB6935
:105A100003F50063DB69FA6902F5006243F00113E4
:105A2000D3617B681B6B002B16D0FB6903F5006309
:105A3000D3F88430FA6902F5006243F00B03C2F830
:105A40008430FB6903F500635B6CFA6902F5006260
:105A500043F00B03536415E0FB6903F500635B69D6
:105A6000FA6902F5006243F4005343F02B035361DB
:105A7000FB6903F500631B69FA6902F5006243F0F4
:105A80000B031361FB6903F500631B68FA6902F5F8
:105A9000006223F4FE6313607B6818687B681B69EF
:105AA000D9B27B6803F2C4431A4604F07BFB7B68DF
:105AB0001B685A697B681B6802F480525A617B68D4
:105AC0001B68184604F0AAFA034603F40053B3F522
:105AD000005F24D17B681B68184604F040FB7B689C
